:100000000C9435000C945D000C945D000C945D0024
:100010000C945D000C945D000C945D000C945D00EC
:100020000C945D000C945D000C945D000C945D00DC
:100030000C945D000C945D000C945D000C945D00CC
:100040000C9453040C945D000C94DF010C94110289
:100050000C945D000C945D000C945D000C945D00AC
:100060000C945D000C945D00410211241FBECFEF83
:10007000D8E0DEBFCDBF11E0A0E0B1E0E8E8FFE0EE
:1000800002C005900D92A232B107D9F721E0A2E299
:10009000B1E001C01D92A83CB207E1F710E0C5E352
:1000A000D0E004C02197FE010E94BC07C433D107F1
:1000B000C9F70E946F020C94C2070C94000026E05E
:1000C00040E855E260E070E082E291E00C947A0151
:1000D000CF92DF92EF92FF92CF93DF93C4EFD1E004
:1000E000C12CD12C76018EE00E943905BC01990FFC
:1000F000880B990B0E94730620ED34E448ED5CE315
:100100000E94280726EF38E248E551E40E9457058F
:1001100020E030E04AEF53E40E94C9059B01AC01A6
:10012000C701B6010E9458056B017C0161E070E0D7
:1001300080E090E00E94C2042197A9F62CEE31E500
:1001400048EB5DE3C701B6010E945805AB01BC0155
:1001500022E030E082E291E0DF91CF91FF90EF90DA
:10016000DF90CF900C944104FC01918D228D892F5A
:1001700090E0805C9F4F821B91098F7399270895AF
:10018000FC01918D828D981731F0828DE80FF11D61
:10019000858D90E008958FEF9FEF0895FC01918D7C
:1001A000828D981761F0828DDF01A80FB11D5D96D9
:1001B0008C91928D9F5F9F73928F90E008958FEF47
:1001C0009FEF089587E392E0892B49F080E090E06B
:1001D000892B29F00E94370281110C9400000895A8
:1001E000FC01848DDF01A80FB11DA35ABF4F2C91D4
:1001F000848D90E001968F739927848FA689B789A3
:100200002C93A089B1898C9180648C93938D848D7B
:10021000981306C00288F389E02D80818F7D80834A
:100220000895CF93DF93EC01888D8823C9F0EA8984
:10023000FB89808185FD05C0A889B9898C9186FDDF
:100240000FC00FB607FCF5CF808185FFF2CFA889DC
:10025000B9898C9185FFEDCFCE010E94F000E7CFE8
:10026000DF91CF910895EF92FF920F931F93CF9359
:10027000DF93EC0181E0888F9B8D8C8D981305C0F6
:10028000E889F989808185FD24C0F62E0B8D10E068
:100290000F5F1F4F0F731127E02E8C8DE8120CC0DB
:1002A0000FB607FCFACFE889F989808185FFF5CF81
:1002B000CE010E94F000F1CF8B8DFE01E80FF11D01
:1002C000E35AFF4FF0820B8FEA89FB8980818062BD
:1002D00007C0EE89FF896083E889F989808180649D
:1002E000808381E090E0DF91CF911F910F91FF908B
:1002F000EF900895CF92DF92EF92FF921F93CF93EA
:10030000DF93EC016A017B01122FE889F98982E011
:1003100080834115514E61057105B1F060E079E0CF
:100320008DE390E0A70196010E949A07DA01C901C6
:100330000197A109B109B695A79597958795AC0145
:10034000411580E15807A8F0E889F989108260E832
:1003500074E88EE190E0A70196010E949A07BA0125
:10036000A901415051096109710976956795579521
:100370004795EC85FD855083EE85FF854083188E7B
:10038000EC89FD891083EA89FB8980818061808303
:10039000EA89FB89808188608083EA89FB89808182
:1003A00080688083EA89FB8980818F7D8083DF91EB
:1003B000CF911F91FF90EF90DF90CF9008951F9203
:1003C0000F920FB60F9211242F938F939F93EF9359
:1003D000FF93E0913201F09133018081E091380187
:1003E000F091390182FD12C0908180913B018F5FB5
:1003F0008F7320913C01821751F0E0913B01F0E0B6
:10040000EE5DFE4F958F80933B0101C08081FF918F
:10041000EF919F918F912F910F900FBE0F901F9092
:1004200018951F920F920FB60F9211242F933F939E
:100430004F935F936F937F938F939F93AF93BF93EC
:10044000EF93FF9382E291E00E94F000FF91EF9121
:10045000BF91AF919F918F917F916F915F914F91DC
:100460003F912F910F900FBE0F901F90189582E231
:1004700091E00E94B40021E0892B09F420E0822F52
:100480000895E2E2F1E01382128288EE93E0A0E0A8
:10049000B0E084839583A683B78385E091E0918360
:1004A000808385EC90E09587848784EC90E0978743
:1004B000868780EC90E0918B808B81EC90E0938B31
:1004C000828B82EC90E0958B848B86EC90E0978B0E
:1004D000868B118E128E138E148E089508950E94AD
:1004E000FE040E946E020E945F00C2EED0E00E94F5
:1004F00068002097E1F30E94E200F9CFCF92DF92EB
:10050000EF92FF920F931F93CF93DF936C017A01C9
:100510008B01C0E0D0E0CE15DF0589F0D8016D91E8
:100520008D01D601ED91FC910190F081E02DC60185
:100530000995892B11F47E0102C02196ECCFC701E9
:10054000DF91CF911F910F91FF90EF90DF90CF90AF
:1005500008956115710579F0FB0101900020E9F71C
:100560003197AF01461B570BDC01ED91FC910280E6
:10057000F381E02D099480E090E00895DC01ED9195
:10058000FC910190F081E02D099461E171E00C94FF
:10059000A9024F925F926F927F92EF92FF920F9318
:1005A0001F93CF93DF93CDB7DEB7A1970FB6F89423
:1005B000DEBF0FBECDBF7C01FA01CB0119A22230F4
:1005C00008F42AE08E010F5D1F4F422E512C612C42
:1005D000712CBF01A30192010E949A07F901CA017F
:1005E000015011096A3014F4605D01C0695CD801E2
:1005F0006C93232B242B252B61F7B801C7010E9494
:10060000A902A1960FB6F894DEBF0FBECDBFDF9151
:10061000CF911F910F91FF90EF907F906F905F901F
:100620004F900895CF92DF92EF92FF920F931F9316
:10063000CF93DF93EC016A017B012115310579F439
:10064000E881F9810190F081E02D642FDF91CF9155
:100650001F910F91FF90EF90DF90CF9009942A3077
:100660003105E9F477FF1AC06DE20E94BE028C01E9
:1006700044275527BA014C195D096E097F092AE004
:10068000CE010E94C902800F911FDF91CF911F916F
:100690000F91FF90EF90DF90CF9008952AE0B7017F
:1006A000A601CE01DF91CF911F910F91FF90EF90A6
:1006B000DF90CF900C94C9024F925F926F927F921D
:1006C0008F929F92AF92BF92CF92DF92EF92FF9262
:1006D000CF93DF93EC016A017B01B22E9A01AB014B
:1006E000C701B6010E949507882319F064E171E003
:1006F00027C026013701E89477F82FEF3FEF4FE747
:100700005FE7C301B2010E94950781110DC02FEF71
:100710003FEF4FE75FE7C301B2010E94C40518161F
:100720001CF468E171E00CC02FEF3FEF4FE75FE48E
:10073000C701B6010E94230718169CF46CE171E012
:10074000CE01DF91CF91FF90EF90DF90CF90BF90DF
:10075000AF909F908F907F906F905F904F900C9490
:10076000A9022FEF3FEF4FE75FECC701B6010E94F0
:10077000C40587FDE3CF20E030E0A901C701B60141
:100780000E94C40587FF0AC06DE2CE010E94BE022E
:100790004C01F7FAF094F7F8F09402C0812C912CF8
:1007A000A12C60E070E080E09FE3AB1441F020E01A
:1007B00030E040E251E40E94C905A394F6CF9B01CA
:1007C000AC01C701B6010E9458052B013C010E94F3
:1007D00042066B017C010E9471069B01AC01C301C2
:1007E000B2010E9457052B013C012AE0B701A60186
:1007F000CE010E94C9027C01E80CF91CBB2039F033
:1008000060E271E0CE010E94A902E80EF91EDB2C25
:10081000DD2039F120E030E040E251E4C301B201D3
:100820000E9428072B013C010E943B064B01770FD9
:10083000AA08BB082AE030E0B501A401CE010E945D
:100840001203E80EF91EC501B4010E9473069B0154
:10085000AC01C301B2010E9457052B013C01DA949F
:10086000D7CFC701DF91CF91FF90EF90DF90CF906E
:10087000BF90AF909F908F907F906F905F904F90C0
:1008800008950F931F93CF93DF93EC010E945C03B5
:100890008C01CE010E94C502800F911FDF91CF9184
:1008A0001F910F9108951F920F920FB60F9211246E
:1008B0002F933F938F939F93AF93BF938091C001EA
:1008C0009091C101A091C201B091C3013091BF01CB
:1008D00023E0230F2D3720F40196A11DB11D05C083
:1008E00026E8230F0296A11DB11D2093BF0180931E
:1008F000C0019093C101A093C201B093C301809144
:10090000C4019091C501A091C601B091C7010196A3
:10091000A11DB11D8093C4019093C501A093C60190
:10092000B093C701BF91AF919F918F913F912F914C
:100930000F900FBE0F901F9018953FB7F8948091BD
:10094000C4019091C501A091C601B091C70126B51F
:10095000A89B05C02F3F19F00196A11DB11D3FBFF7
:10096000BA2FA92F982F8827820F911DA11DB11D85
:10097000BC01CD0142E0660F771F881F991F4A9581
:10098000D1F708958F929F92AF92BF92CF92DF924C
:10099000EF92FF926B017C010E949D044B015C0170
:1009A000C114D104E104F10401F10E9456050E9432
:1009B0009D04DC01CB0188199909AA09BB09883E6D
:1009C0009340A105B10560F321E0C21AD108E10806
:1009D000F10888EE880E83E0981EA11CB11CC1149A
:1009E000D104E104F10419F7DBCFFF90EF90DF9021
:1009F000CF90BF90AF909F908F900895789484B5DA
:100A0000826084BD84B5816084BD85B5826085BD0A
:100A100085B5816085BDEEE6F0E0808181608083F0
:100A2000E1E8F0E0108280818260808380818160D3
:100A30008083E0E8F0E0808181608083E1EBF0E09A
:100A4000808184608083E0EBF0E08081816080833E
:100A5000EAE7F0E080818460808380818260808327
:100A60008081816080838081806880831092C10052
:100A700008958E3008F08E5087702091000190E428
:100A8000299F90011124822B80937C0080917A0011
:100A9000806480937A0080917A0086FDFCCF8091FB
:100AA00078002091790090E0922B08950895505895
:100AB000BB27AA270E946F050C94E9060E94DB065B
:100AC00038F00E94E20620F039F49F3F19F426F432
:100AD0000C94D8060EF4E095E7FB0C94D206E92FAF
:100AE0000E94FA0658F3BA1762077307840795073E
:100AF00020F079F4A6F50C941C070EF4E0950B2E6B
:100B0000BA2FA02D0B01B90190010C01CA01A0015F
:100B10001124FF27591B99F0593F50F4503E68F1BA
:100B20001A16F040A22F232F342F4427585FF3CFFB
:100B3000469537952795A795F0405395C9F77EF4CC
:100B40001F16BA0B620B730B840BBAF09150A1F015
:100B5000FF0FBB1F661F771F881FC2F70EC0BA0F9B
:100B6000621F731F841F48F4879577956795B79523
:100B7000F7959E3F08F0B0CF9395880F08F099271E
:100B8000EE0F9795879508950E94AE0608F481E0D0
:100B900008950E94DD050C94E9060E94E20658F0D3
:100BA0000E94DB0640F029F45F3F29F00C94D20646
:100BB00051110C941D070C94D8060E94FA0668F394
:100BC0009923B1F3552391F3951B550BBB27AA2706
:100BD00062177307840738F09F5F5F4F220F331F40
:100BE000441FAA1FA9F335D00E2E3AF0E0E832D008
:100BF00091505040E695001CCAF72BD0FE2F29D00B
:100C0000660F771F881FBB1F261737074807AB07DC
:100C1000B0E809F0BB0B802DBF01FF2793585F4F51
:100C20003AF09E3F510578F00C94D2060C941D07C3
:100C30005F3FE4F3983ED4F3869577956795B79533
:100C4000F7959F5FC9F7880F911D9695879597F93E
:100C50000895E1E0660F771F881FBB1F62177307B7
:100C60008407BA0720F0621B730B840BBA0BEE1FCC
:100C700088F7E09508950E9442066894B1110C949B
:100C80001D0708950E94020788F09F5798F0B92F1A
:100C90009927B751B0F0E1F0660F771F881F991FB1
:100CA0001AF0BA95C9F714C0B13091F00E941C0730
:100CB000B1E008950C941C07672F782F8827B85F40
:100CC00039F0B93FCCF3869577956795B395D9F709
:100CD0003EF490958095709561957F4F8F4F9F4F13
:100CE0000895E89409C097FB3EF49095809570951F
:100CF00061957F4F8F4F9F4F9923A9F0F92F96E968
:100D0000BB279395F695879577956795B795F111DC
:100D1000F8CFFAF4BB0F11F460FF1BC06F5F7F4F79
:100D20008F4F9F4F16C0882311F096E911C077238B
:100D300021F09EE8872F762F05C0662371F096E894
:100D4000862F70E060E02AF09A95660F771F881F63
:100D5000DAF7880F9695879597F90895990F000807
:100D6000550FAA0BE0E8FEEF16161706E807F9077D
:100D7000C0F012161306E407F50798F0621B730B18
:100D8000840B950B39F40A2661F0232B242B252B99
:100D900021F408950A2609F4A140A6958FEF811D3C
:100DA000811D089597F99F6780E870E060E00895DD
:100DB0009FEF80EC089500240A9416161706180673
:100DC0000906089500240A9412161306140605064F
:100DD0000895092E0394000C11F4882352F0BB0FE0
:100DE00040F4BF2B11F460FF04C06F5F7F4F8F4F43
:100DF0009F4F089557FD9058440F551F59F05F3F7E
:100E000071F04795880F97FB991F61F09F3F79F02C
:100E100087950895121613061406551FF2CF4695AE
:100E2000F1DF08C0161617061806991FF1CF869530
:100E30007105610508940895E894BB276627772714
:100E4000CB0197F908950E94AE0608F48FEF08953C
:100E50000E943B070C94E9060E94DB0638F00E94D2
:100E6000E20620F0952311F00C94D2060C94D806DB
:100E700011240C941D070E94FA0670F3959FC1F38C
:100E8000950F50E0551F629FF001729FBB27F00D38
:100E9000B11D639FAA27F00DB11DAA1F649F66278D
:100EA000B00DA11D661F829F2227B00DA11D621FDC
:100EB000739FB00DA11D621F839FA00D611D221F96
:100EC000749F3327A00D611D231F849F600D211D7A
:100ED000822F762F6A2F11249F5750409AF0F1F0FD
:100EE00088234AF0EE0FFF1FBB1F661F771F881F66
:100EF00091505040A9F79E3F510580F00C94D206C6
:100F00000C941D075F3FE4F3983ED4F386957795E4
:100F10006795B795F795E7959F5FC1F7FE2B880F0B
:100F2000911D9695879597F908950E94AE06880BB6
:100F3000990B0895A1E21A2EAA1BBB1BFD010DC03F
:100F4000AA1FBB1FEE1FFF1FA217B307E407F50779
:100F500020F0A21BB30BE40BF50B661F771F881F55
:100F6000991F1A9469F760957095809590959B01EB
:100F7000AC01BD01CF010895EE0FFF1F0590F49164
:080F8000E02D0994F894FFCF65
:100F8800010000000033017E02B400CE00C0001151
:100F9800010D0A006E616E00696E66006F7666006C
:020FA8002E0019
:00000001FF
